:020000000129D4
:10000600103083120313FD00FD0B072800000800C3
:10001600083083120313FC002330FD00FD0B11286A
:06002600FC0B112808008C
:04002C0000000800C8
:1000300083120313C11B1E2888131F288817411B16
:100040002328081324280817C11A282888122928C9
:100050008816411A2D2808122E2808163918322819
:10006000091533280911891416208910C1193A2855
:1000700088133B28881741193F2808134028081780
:10008000C1184428881245288816411849280812A2
:100090004A28081639184E2809154F2809118914BD
:1000A00016208910391C56280B20572803200800D9
:0E00B000831203133B088A003A0882000800FE
:1000BE008312031339104008C100182039140800A8
:1000CE008316031389100911081288120813881356
:1000DE0083128910091188130813881208120B2035
:1000EE000B200B20881608168914162089100B2059
:1000FE008914162089100B208914162089100B20C4
:10010E0008128914162089100B20891416208910C4
:10011E00881288178914162089100B208813081648
:10012E0089141620891008128914162089100B20A4
:10013E0089141620891008168914162089100B2090
:10014E0008128914162089108817081788160816A1
:0C015E008914162089100B2039140800A9
:10016A00C728803083120313BC00DA28C030BC00D1
:10017A00DA289430BC00DA28D430BC00DA2880307F
:10018A00BC00DA28831203133C08013A0319B62883
:10019A003C08023A0319BB283C08033A0319BE2853
:1001AA003C08043A0319C128C4283D03F0003C085E
:1001BA00F0077008BC007008C10018203910BF0190
:1001CA003F083E07840000080319F3283F083E074A
:1001DA0084000008C0005F20BF0AE528391408001F
:1001EA0058208A110A128000840ABA0A0319BB0A23
:0801FA00F003031DF5280800C5
:100202004D3083120313A0006130A1007430A200AC
:100212006830A3006530A4007530A5007330A600D5
:100222002130A700A8015730A9006530AA006C3020
:10023200AB006C30AC006330AD006F30AE006D309F
:10024200AF006530B000B1013130B2003430B300DC
:100252003830B4003630B5003330B6003230B70033
:10026200B80103308316860067200130C1001820D0
:100272000C30C10018200130BC000530BD0029300F
:10028200BE00B52006184F290130C10018200130E8
:10029200BC000530BD002030BE00B52086185829AC
:1002A2000230BC000630BD003230BE00B52043290A
:0202B2005929C8
:02400E004A2F37
:00000001FF
