:020000000328D3
:1000060083160313880183128801831685018312E0
:10001600850105153F3088000630FB001330FC00D3
:10002600AD30FD00FD0B1528FC0B1528FB0B152824
:1000360000000000063088000630FB001330FC008C
:10004600AD30FD00FD0B2528FC0B2528FB0B2528D4
:10005600000000005B3088000630FB001330FC0017
:10006600AD30FD00FD0B3528FC0B3528FB0B352884
:10007600000000004F3088000630FB001330FC0003
:10008600AD30FD00FD0B4528FC0B4528FB0B452834
:1000960000000000663088000630FB001330FC00CC
:1000A600AD30FD00FD0B5528FC0B5528FB0B5528E4
:1000B600000000006D3088000630FB001330FC00A5
:1000C600AD30FD00FD0B6528FC0B6528FB0B652894
:1000D600000000007D3088000630FB001330FC0075
:1000E600AD30FD00FD0B7528FC0B7528FB0B752844
:1000F60000000000073088000630FB001330FC00CB
:10010600AD30FD00FD0B8528FC0B8528FB0B8528F3
:10011600000000007F3088000630FB001330FC0032
:10012600AD30FD00FD0B9528FC0B9528FB0B9528A3
:1001360000000000673088000630FB001330FC002A
:10014600AD30FD00FD0BA528FC0BA528FB0BA52853
:1001560000000000773088000630FB001330FC00FA
:10016600AD30FD00FD0BB528FC0BB528FB0BB52803
:10017600000000007C3088000630FB001330FC00D5
:10018600AD30FD00FD0BC528FC0BC528FB0BC528B3
:1001960000000000393088000630FB001330FC00F8
:1001A600AD30FD00FD0BD528FC0BD528FB0BD52863
:1001B600000000005E3088000630FB001330FC00B3
:1001C600AD30FD00FD0BE528FC0BE528FB0BE52813
:1001D60000000000793088000630FB001330FC0078
:1001E600AD30FD00FD0BF528FC0BF528FB0BF528C3
:1001F60000000000713088000630FB001330FC0060
:10020600AD30FD00FD0B0529FC0B0529FB0B05296F
:08021600000000000D280E2974
:02400E004A2F37
:00000001FF
